:1000000038C05CC05BC05AC059C058C057C056C049
:1000100055C020C253C052C051C050C04FC04EC086
:100020004DC062C24BC000000000380035003200F5
:10003000040404040404040402020202020203038E
:10004000030303030202010204081020408001029E
:100050000408102001020408102040800000000065
:100060000000000000030406000000000000000083
:10007000D00411241FBECFE5D4E0DEBFCDBF10E019
:10008000A0E6B0E0ECEFF9E002C005900D92A237D7
:10009000B107D9F723E0A2E7B0E001C01D92A63472
:1000A000B207E1F710E0C9E3D0E003C02197FE01F9
:1000B0009DD4C833D107D1F72CD39EC4A1CFE091F2
:1000C0000F03F0911003309729F010920C03109257
:1000D0000B0309940895CF93DF93AC01E0911103D2
:1000E000F09112033097F1F090910E0380910D037F
:1000F0009817C0F090E0292F30E02617370754F406
:10010000D901AE58BF4F240F351FE90128812C9328
:100110009F5FF1CF10920E0360930D03CB01DF912F
:10012000CF910994DF91CF91089590E0FC01E45ABA
:10013000FF4F3491FC01EA5BFF4F2491FC01E05D2D
:10014000FF4FE491EE23E1F0332349F03430C9F05E
:100150003630D1F0333019F48FB58F778FBDF0E0A2
:10016000EE0FFF1FEA5DFF4FA591B4918FB7F89492
:1001700061110EC09C91E22FE095E923EC938FBFB3
:1001800008958FB58F7DEACF85B58F7D85BDE7CF8B
:10019000EC91E22BF3CF806487B9369A3699FECF83
:1001A00084B195B108952091B800260F3327331FED
:1001B00021323105ECF42091DC00FC0190E080E07C
:1001C000243069F082E00895A091B8002191AC013B
:1001D00048565F4FA40FB52FB11D2C93019686177B
:1001E00098F38091B800680F6093B80080E008959C
:1001F00081E008951092DC0081E08093DE0010928F
:10020000DD0061E082E191DF61E083E18EDF08984B
:10021000099880E280B985E486BF08950895E09149
:100220000E0380910D03E81730F4F0E0EE58FF4F15
:10023000808190E008958FEF9FEF089590910E03D5
:1002400080910D032FEF3FEF981748F4E92FF0E06E
:10025000EE58FF4F208130E09F5F90930E03C9015D
:10026000089580910D0390910E03891B990B0895B9
:10027000CF93DF93CB01EA01642F95DFCE01DF91AD
:10028000CF910895CF93DF931F92CDB7DEB76983E7
:1002900061E0CE01019687DF81E090E00F90DF9171
:1002A000CF91089590E080E00895CF93DF93049775
:1002B00081F4D0E0C0E083E193E0C0DFFE01E15EC5
:1002C000FC4F80832196C430D105A9F781E080934B
:1002D0004503DF91CF910895A7E3B3E02EE333E028
:1002E0008FEF9FEFED91582F4427E927F0E0EE0FB5
:1002F000FF1FE95FFE4F80819181842795272A1790
:100300003B0781F790933F0380933E0349E050E021
:1003100067E373E083E193E0ABCFCF93DF9300D04B
:10032000CDB7DEB782E7898380913D038770880F60
:10033000880F8F5F8A83F894FE013196BE016D5F4E
:100340007F4F40E150E0CA010197F1F727E030E02C
:10035000808190E0022E02C0959587950A94E2F77D
:10036000AB98DC01A170BB2780FD25C089E190E03E
:10037000880F991F04970197F1F7AB9A8AE090E0F4
:10038000AB2B11F089E190E0880F991F049701973A
:10039000F1F721503109E0F6AB98CA010197F1F766
:1003A000AB9A31966E177F0771F678940F900F9085
:1003B000DF91CF9108958AE090E0DACFCF93DF9379
:1003C00085ED86BF8091940090919500A091960054
:1003D000B09197000796A11DB11D23E0B695A79592
:1003E000979587952A95D1F706B604FC03C010921D
:1003F000DC002DC0409194005091950060919600D2
:1004000070919700452B462B472B71F30097A10560
:10041000B10541F02AE12A95F1F700C00197A10941
:10042000B109E2CF8091930091E0909392008823EC
:1004300071F0C0B1D2B186B78A7B86BF60E082E13D
:1004400074DE60E083E171DED5DED2B9C0B9DF9140
:10045000CF9108951F920F920FB60F9211242F93F0
:100460003F938F939F93AF93BF938091220390917B
:100470002303A0912403B09125033091060126E0C7
:10048000230F2D3758F50296A11DB11D20930601AB
:100490008093220390932303A0932403B093250316
:1004A0008091020190910301A0910401B091050196
:1004B0000196A11DB11D8093020190930301A093A9
:1004C0000401B0930501BF91AF919F918F913F912E
:1004D0002F910F900FBE0F901F90189529E8230FB2
:1004E0000396A11DB11DD2CF1F920F920FB60F928E
:1004F00011242F933F934F935F936F937F938F9329
:100500009F93AF93BF93EF93FF9381B1887F803622
:1005100009F449C0E8F5883209F4A2C018F5803121
:1005200009F498C0B8F4882309F4F0C0883009F4BD
:1005300091C0FF91EF91BF91AF919F918F917F916A
:100540006F915F914F913F912F910F900FBE0F9040
:100550001F901895883109F483C0803251F7809339
:10056000DB0014C0803409F497C040F48033B9F341
:100570008833F9F68093DB0085ECA9C0803509F457
:1005800080C0883509F490C0883499F617DFD1CF40
:10059000883909F487C030F5883729F050F4883657
:1005A00011F0803731F683E08093DC001092DA009E
:1005B00054C0883809F476C0803919F0803809F0C1
:1005C000B8CF8091DA00803208F06CC0E091DA0098
:1005D00081E08E0F8093DA0083B1F0E0E654FF4FA4
:1005E00080833BC0803B39F0E0F4803A09F473C06B
:1005F000883A09F09ECF84E08093DC001092B90025
:100600001092B800E0910903F0910A0309958091D6
:10061000B80081110FC081E08093B800109298005B
:1006200009C0803C09F4A8CF883C09F4A5CF883BD9
:1006300009F07FCFE091B90081E08E0F8093B9007F
:10064000F0E0E856FF4F808183B99091B900809126
:10065000B80026C08091010183B985EC86BF69CFBF
:10066000909100018091FF00981748F5E0910001FA
:1006700081E08E0F80930001F0E0E152FF4F808116
:10068000EBCFE091000181E08E0F8093000183B1F8
:10069000F0E0E152FF4F8083909100018091FF00D4
:1006A0009817D8F285E8DACFE091000181E08E0F4B
:1006B0008093000183B1F0E0E152FF4F808380918D
:1006C000DE00811163CF81E08093DD0084EA86BF84
:1006D0001092DC002ECF85EC86BF1092DC0080915A
:1006E000DA00803230F4E091DA00F0E0E654FF4FB7
:1006F00010826091DA0070E0E0910703F091080346
:100700008AEB90E009951092DA0013CF1092DB008B
:100710003DCF789483B7826083BF83B7816083BF06
:1007200089B7816089BF1EBC8EB582608EBD8EB5D3
:1007300081608EBD8FB581608FBD85B5846085BDBC
:1007400085B5806485BD329A319A3098379A1AB847
:1007500017BA11BA8FEF88BB82BBA39AAB98A29845
:10076000AA9A90E080E02DD1982F977080913D0358
:10077000887F892B80933D03AB988CE697E10197A6
:10078000F1F7AB9A88E291E00197F1F7AB9884E535
:1007900092E00197F1F7AB9AC0DDE7E0F1E067E0A6
:1007A00073E030E020E0C90148E0DC01880F991FC8
:1007B000B7FF04C051E2852750E195274150A9F7C2
:1007C0008193919333956E177F0769F710920E030B
:1007D00010920D0310920C0310920B030BDD8FE5AA
:1007E00090E090930A03809309038BE690E0909346
:1007F00008038093070380E682B98CE691E090932A
:10080000100380930F0385E591E09093120380938A
:100810001103EE24E394F12CDAE000E010E0DD2493
:10082000D39480914503882399F080911F038031F0
:1008300069F480912003883048F4909120039770E8
:1008400080913D03887F892B80933D03109245035F
:100850002FB7F8948091220390912303A091240351
:10086000B09125032FBF4091410350914203609105
:10087000430370914403481759076A077B0709F43B
:1008800041C08093410390934203A0934303B093EC
:100890004403C0912603C13009F443C0C8F1C230FB
:1008A00009F448C0C33009F44EC0CF5FC370C09391
:1008B000260320B386B3322F282F20953095E7E208
:1008C000F3E050E040E090E080E0D701042E02C069
:1008D000AA0FBB1F0A94E2F7B9016A237B23672B97
:1008E000D9F1D0838A2B9B2B4F5F5F4F31964031DC
:1008F000510559F790933803809337039A9932C082
:10090000D09240030115110509F48BCF79DB89CF13
:1009100080E041DC9595879595958795809339037F
:10092000C4CF81E038DC9595879595958795809320
:100930003A03BBCF86E02FDC9595879595958795F3
:1009400080933B03B2CF87E026DC959587959595FC
:10095000879580933C03A9CF6081662329F261507B
:100960006083C0CF80914003882361F280913D0372
:1009700091E0980F9770887F892B80933D031092A8
:100980004003CBDCC0913D03C77090E080E019D0FC
:10099000C81709F4B7CF6C2F90E080E01AD0B2CF1F
:1009A000E3E1F3E01382128288EE93E0A0E0B0E08E
:1009B00084839583A683B78384E690E091838083C4
:1009C0000895E199FECF9FBB8EBBE09A99278DB326
:1009D0000895262FE199FECF9FBB8EBB2DBB0FB68E
:1009E000F894E29AE19A0FBE01960895EE0FFF1F68
:0C09F0000590F491E02D0994F894FFCFDD
:1009FC00000000004201380152010E0131011E01BC
:020A0C000F01D8
:00000001FF
