:1000000036C05AC059C058C057C056C055C054C059
:1000100053C047C351C050C04FC04EC04DC04CC06C
:100020004BC089C349C000000000380035003200D1
:10003000040404040404040402020202020203038E
:100040000303030301020408102040800102040896
:100050001020010204081020000000080002010026
:1000600000030407000000000000000066061124E1
:100070001FBECFE5D4E0DEBFCDBF10E0A0E6B0E00C
:10008000E8E2FDE002C005900D92A237B107D9F772
:1000900023E0A2E7B0E001C01D92A834B207E1F767
:1000A00010E0C7E3D0E003C02197FE0135D6C63388
:1000B000D107D1F755D436C6A3CF90E0FC01E85A5A
:1000C000FF4F3491FC01EC5BFF4F2491FC01E05D9C
:1000D000FF4FE491EE23E1F0332349F03430C9F0CF
:1000E0003630D1F0333019F48FB58F778FBDF0E013
:1000F000EE0FFF1FEA5DFF4FA591B4918FB7F89403
:1001000061110EC09C91E22FE095E923EC938FBF23
:1001100008958FB58F7DEACF85B58F7D85BDE7CFFB
:10012000EC91E22BF3CF806487B9369A3699FECFF3
:1001300084B195B108958330910528F0880F991FF7
:1001400004970197F1F708953FB7F894809144031D
:1001500090914503A0914603B091470322B708B69A
:1001600000FE05C02F3F19F00196A11DB11D3FBF34
:10017000BA2FA92F982F8827BC01CD01620F711DBE
:10018000811D911D43E0660F771F881F991F4A95B7
:10019000D1F708958F929F92AF92BF92CF92DF9244
:1001A000EF92FF92D1DF4B015C0184E1C82ED12C8C
:1001B000E12CF12CC9DF681979098A099B09683E8D
:1001C000734081059105B0F321E0C21AD108E1081E
:1001D000F10888EE880E83E0981EA11CB11CC114A2
:1001E000D104E104F10431F7FF90EF90DF90CF905C
:1001F000BF90AF909F908F900895E0910A03F09187
:100200000B03309729F0109207031092060309940C
:100210000895CF93DF93AC01E0910C03F0910D03AF
:100220003097F1F090910903809108039817C0F07E
:1002300090E0292F30E02617370754F4D901AE5843
:10024000BF4F240F351FE90128812C939F5FF1CF09
:100250001092090360930803CB01DF91CF910994B9
:10026000DF91CF9108952091B800260F3327331FD7
:1002700021323105ECF42091DC00FC0190E080E0BB
:10028000243069F082E00895A091B8002191AC017A
:1002900048565F4FA40FB52FB11D2C9301968617BA
:1002A00098F38091B800680F6093B80080E00895DB
:1002B00081E008951092DC0081E08093DE001092CE
:1002C000DD0061E082E1F9DE61E083E1F6DE0898BD
:1002D000099880E280B985E486BF08950895E09189
:1002E000090380910803E81730F4F0E0EE58FF4F5F
:1002F000808190E008958FEF9FEF0895909109031A
:10030000809108032FEF3FEF981748F4E92FF0E0B2
:10031000EE58FF4F208130E09F5F90930903C901A1
:1003200008958091080390910903891B990B089502
:10033000CF93DF93CB01EA01642F95DFCE01DF91EC
:10034000CF910895CF93DF931F92CDB7DEB7698326
:1003500061E0CE01019687DF81E090E00F90DF91B0
:10036000CF91089590E080E008951F93CF93DF939D
:10037000D0E0C0E01091080380910903181799F0AC
:100380008EE093E0BBDFFE01E65EFC4F80832196AA
:10039000C430D10579F780910903181721F08EE058
:1003A00093E0ACDFF8CF81E080931E03DF91CF9123
:1003B0001F91089580913A038823D1F0AFE1B3E013
:1003C00026E233E08FEF9FEFED91582F4427E92786
:1003D000F0E0EE0FFF1FEE5FFE4F808191818427DA
:1003E00095272A173B0781F79093270380932603CD
:1003F00049E050E06FE173E08EE093E099CF5F92C7
:100400006F927F928F929F92AF92BF92CF92DF9224
:10041000EF92FF920F931F93CF93DF9300D0CDB74E
:10042000DEB79B995EC0AB988CE697E10197F1F738
:10043000AB9A88E291E00197F1F7AB9884E592E0FE
:100440000197F1F7AB9A70902503272D2770722E34
:10045000770C770C73946624639492E7592E5E01AF
:1004600083E0A80EB11C20E1C22ED12C59826A82F1
:10047000F8948E010F5F1F4FC6010197F1F787E0D7
:10048000E82EF12CF801808190E00E2C02C09595A9
:1004900087950A94E2F7AB984C01F1E08F229924FA
:1004A00080FD31C089E190E046DEAB9A8AE090E0C1
:1004B000892811F089E190E03EDE21E0E21AF1089E
:1004C00008F7AB98C6010197F1F7AB9A0F5F1F4F82
:1004D000A016B10689F678945DDE6394761408F070
:1004E000C5CF0F900F90DF91CF911F910F91FF908B
:1004F000EF90DF90CF90BF90AF909F908F907F90C4
:100500006F905F9008958AE090E0CECFCF93DF9315
:1005100085ED86BF8091940090919500A091960002
:10052000B09197000796A11DB11D23E0B695A79540
:10053000979587952A95D1F706B604FC03C01092CB
:10054000DC002DC040919400509195006091960080
:1005500070919700452B462B472B71F30097A1050F
:10056000B10541F025E12A95F1F700000197A109B5
:10057000B109E2CF8091930091E09093920088239B
:1005800071F0C0B1D2B186B78A7B86BF60E082E1EC
:1005900094DD60E083E191DD8DDED2B9C0B9DF91F9
:1005A000CF9108958F929F92AF92BF92CF92DF9298
:1005B000EF92FF920F931F93CF93DF9300D0CDB7AD
:1005C000DEB782E78983809125038770880F880FC3
:1005D0008F5F8A83F8948E010F5F1F4F5E0123E0C7
:1005E000A20EB11C90E1C92ED12CC6010197F1F7E2
:1005F00087E0E82EF12CF801808190E00E2C02C0FB
:10060000959587950A94E2F7AB984C01F1E08F221B
:10061000992480FD34C089E190E08DDDAB9A8AE0B9
:1006200090E0892811F089E190E085DD21E0E21A6F
:10063000F10808F7AB98C6010197F1F7AB9A0F5F85
:100640001F4FA016B10689F67894109125031770F4
:1006500090E080E04CD31817A9F0612F90E080E083
:100660000F900F90DF91CF911F910F91FF90EF901E
:10067000DF90CF90BF90AF909F908F9040C38AE063
:1006800090E0CBCF0F900F90DF91CF911F910F9102
:10069000FF90EF90DF90CF90BF90AF909F908F90A2
:1006A00008951F920F920FB60F9211242F933F932C
:1006B0008F939F93AF93BF93809140039091410399
:1006C000A0914203B091430330913F0326E0230FF2
:1006D0002D3758F50296A11DB11D20933F0380933D
:1006E000400390934103A0934203B093430380914E
:1006F000440390914503A0914603B09147030196AE
:10070000A11DB11D8093440390934503A09346031C
:10071000B0934703BF91AF919F918F913F912F91DC
:100720000F900FBE0F901F90189529E8230F039686
:10073000A11DB11DD2CF1F920F920FB60F9211249F
:100740002F933F934F935F936F937F938F939F93D9
:10075000AF93BF93EF93FF9381B1887F803609F405
:1007600049C0E8F5883209F4A2C018F5803109F4CF
:1007700098C0B8F4882309F4F0C0883009F491C017
:10078000FF91EF91BF91AF919F918F917F916F9169
:100790005F914F913F912F910F900FBE0F901F903F
:1007A0001895883109F483C0803251F78093DB00BB
:1007B00014C0803409F497C040F48033B9F388330F
:1007C000F9F68093DB0085ECA9C0803509F480C080
:1007D000883509F490C0883499F698DED1CF8839ED
:1007E00009F487C030F5883729F050F4883611F0C5
:1007F000803731F683E08093DC001092DA0054C039
:10080000883809F476C0803919F0803809F0B8CFFB
:100810008091DA00803208F06CC0E091DA0081E06B
:100820008E0F8093DA0083B1F0E0E654FF4F8083AF
:100830003BC0803B39F0E0F4803A09F473C0883A59
:1008400009F09ECF84E08093DC001092B9001092F2
:10085000B800E0910403F091050309958091B80078
:1008600081110FC081E08093B8001092980009C0F8
:10087000803C09F4A8CF883C09F4A5CF883B09F057
:100880007FCFE091B90081E08E0F8093B900F0E056
:10089000E856FF4F808183B99091B9008091B800EC
:1008A00026C08091010183B985EC86BF69CF909104
:1008B00000018091FF00981748F5E091000181E068
:1008C0008E0F80930001F0E0E152FF4F8081EBCF6B
:1008D000E091000181E08E0F8093000183B1F0E090
:1008E000E152FF4F8083909100018091FF009817A3
:1008F000D8F285E8DACFE091000181E08E0F809395
:10090000000183B1F0E0E152FF4F80838091DE006F
:10091000811163CF81E08093DD0084EA86BF10926D
:10092000DC002ECF85EC86BF1092DC008091DA00CF
:10093000803230F4E091DA00F0E0E654FF4F1082AC
:100940006091DA0070E0E0910203F09103038AEB1A
:1009500090E009951092DA0013CF1092DB003DCFA2
:10096000CF93DF9300D0CDB7DEB7789483B78260A2
:1009700083BF83B7816083BF89B7816089BF1EBC95
:100980008EB582608EBD8EB581608EBD8FB5816063
:100990008FBD85B5846085BD85B5806485BD329A7F
:1009A000319A3098379A1AB817BA11BA8FEF88BBB4
:1009B00082BBA39AAB98A298AA9AE2E0F1E062E027
:1009C00073E030E020E0C90148E0DC01880F991FA6
:1009D000B7FF04C051E2852750E195274150A9F7A0
:1009E0008193919333956E177F0769F710923903BE
:1009F0001092380381E080933A0390E080E077D151
:100A000090912503883008F4A5C0987F9460909356
:100A10002503F5DC109209031092080310920703D6
:100A20001092060347DC8DEF90E0909305038093CE
:100A3000040389E091E0909303038093020380E62E
:100A400082B98AED91E090930B0380930A0385EBC2
:100A500091E090930D0380930C03F0E1CF2ED12C05
:100A60003E0183E0680E711CAA24A394B12C8091EE
:100A70001E03882351F080911A03803109F46EC05F
:100A8000803209F4D7C010921E032FB7F8948091DA
:100A9000400390914103A0914203B09143032FBFC3
:100AA00040913B0350913C0360913D0370913E03A4
:100AB000481759076A077B0709F445C080933B0331
:100AC00090933C03A0933D03B0933E0310913903F0
:100AD000113009F4C1C008F4B6C0123009F4C5C021
:100AE000133009F4CBC01F5F13701093390320B388
:100AF00086B3322F282F20953095E8E2F3E050E0BE
:100B000040E090E080E07AE0D501042E02C0AA0F18
:100B1000BB1F0A94E2F789010A231B23012B09F466
:100B2000B6C070838A2B9B2B4F5F5F4F319640314D
:100B3000510551F79093200380931F039A99AEC0FB
:100B400081E08093380380E090E0892B09F48FCF17
:100B500057DA86CF8770987F982B59CF80911B03E7
:100B6000883009F04BC09B9B8ECF50902503E52D1C
:100B7000E7705E2E550C550C539472E7472E498250
:100B80005A82F8948E010F5F1F4FC6010197F1F74B
:100B900067E0E62EF12CF801808190E00E2C02C077
:100BA000959587950A94E2F7AB984C01F1E08F2276
:100BB000992480FF20C08AE090E0BDDAAB9A89E1F9
:100BC00090E0892811F48AE090E0B5DA21E0E21A99
:100BD000F10808F7AB98C6010197F1F7AB9A0F5FE0
:100BE0001F4F6016710689F67894D4DA5A94511022
:100BF000C6CFAB9848CF89E190E0DFCF80911B034F
:100C0000893021F49B993FCFFADB3DCF80911B03C4
:100C1000883008F038CF90911B039770809125039E
:100C2000887F892B809325039B9BEECF9B9B2BCFAB
:100C3000B9DC29CF90911B0381E0911101C080E0C4
:100C400080933A0320CF80E06EDA9595879595954D
:100C500087958093210347CF81E065DA9595879545
:100C600095958795809322033ECF86E05CDA959533
:100C70008795959587958093230335CF87E053DA41
:100C80009595879595958795809324032CCF6081C2
:100C9000662309F449CF6150608344CF80913803C3
:100CA000882309F450CF109238039B9902C0A7DB28
:100CB0004ACF8091250391E0980F9770887F892B08
:100CC000809325039B9B3FCF6DDC3DCFEEE0F3E0AF
:100CD0001382128288EE93E0A0E0B0E084839583D3
:100CE000A683B78384E690E0918380830895E19999
:100CF000FECF9FBB8EBBE09A99278DB30895262F18
:100D0000E199FECF9FBB8EBB2DBB0FB6F894E29A44
:100D1000E19A0FBE01960895EE0FFF1F0590F49122
:080D2000E02D0994F894FFCFC7
:100D280000000000A2019801B2016E0191017E014C
:020D38006F0149
:00000001FF
